:100000000C9458000C9480000C9480000C94800098
:100010000C9480000C9480000C9480000C94800060
:100020000C9480000C9480000C9480000C94800050
:100030000C9480000C9480000C9480000C94800040
:100040000C94ED040C9480000C945D050C94370521
:100050000C9480000C9480000C9480000C94800020
:100060000C94BF030C9480000000000025002800C1
:100070002B00040404040404040402020202020229
:10008000030303030303010204081020408001025C
:1000900004081020010204081020000000080002DB
:1000A00001000003040700000000000000008F05AD
:1000B00011241FBECFEFD8E0DEBFCDBF11E0A0E01E
:1000C000B1E0EAE1F2E102C005900D92A032B10781
:1000D000D9F722E0A0E2B1E001C01D92AA39B2072F
:1000E000E1F710E0C8E5D0E004C02197FE010E94CE
:1000F0000008C735D107C9F70E94C8050C940B0941
:100100000C94000090E0FC01E656FF4F2491FC01A6
:10011000EA57FF4F3491FC01EE58FF4FE491EE2374
:10012000B1F1222339F1233091F038F42130A9F0D4
:10013000223001F584B58F7D12C0273091F0283030
:10014000A1F02430B9F4809180008F7D03C08091AC
:1001500080008F77809380000DC084B58F7784BD39
:1001600009C08091B0008F7703C08091B0008F7D6F
:100170008093B000F0E0EE0FFF1FE859FF4FA5910C
:10018000B4918FB7F894EC913E2B3C938FBF0895B8
:1001900091E09093CD018093EF011092CE011092E7
:1001A000F001089540918101262F30E0240F311D88
:1001B00021323105DCF42091CC012430C9F4FC015A
:1001C00080E090E0861758F4309181012191DC01A4
:1001D000A15ABE4FA30FB11D2C930196F3CF80916E
:1001E0008101680F6093810180E0089581E00895A6
:1001F00082E008951092CC0181E08093CB011092AF
:10020000A60182E10E94820083E10E948200E9EB64
:10021000F0E080818E7F808380818D7F808388E481
:100220008093B80085E48093BC000895882349F04A
:1002300010925B0110925C0110925D0110925E01C0
:1002400013C080915B0190915C01A0915D01B09120
:100250005E010196A11DB11D80935B0190935C012D
:10026000A0935D01B0935E0180915B0190915C0170
:10027000A0915D01B0915E01803A9648A140B10520
:1002800060F010925B0110925C0110925D0110927F
:100290005E010E94FA0081E0089580E008951F93B6
:1002A000CF93DF931091F001D091EF01113208F05C
:1002B0005EC081E00E941601C091CC01CC2339F0D0
:1002C00080E00E9416018823B9F3C5E055C082E0A2
:1002D0008093CC0181E08093CB018FEF8093CA01A2
:1002E0001092C9011093C801AFECB1E028EA31E0E7
:1002F000F9018E2F821B811718F48D918193F9CF0C
:100300001092A7019091A7018D2F880F892B8093C0
:10031000A7018091A601813061F41092A60180911D
:10032000A7018093BB008091BC0083FDF8CF85ECD2
:1003300001C085EE8093BC0081E00E94160180918F
:10034000CC01823031F480E00E9416018111BDCFD2
:10035000F6CF8091CA018F3F79F08091CA01803237
:1003600041F08091CA01803331F0C4E005C0C1E0A2
:1003700003C0C2E001C0C3E01092CE011092F001B0
:100380001092CD018C2FDF91CF911F91089585EDB3
:100390008093BC0081E00E9416018091BC0084FF24
:1003A00006C080E00E9416018823B9F302C01092B3
:1003B000CC0108950895E0915A0180915901E81700
:1003C00030F4F0E0E75CFE4F808190E008958FEF1D
:1003D0009FEF089590915A0180915901981750F418
:1003E000E92FF0E0E75CFE4F208130E09F5F9093C3
:1003F0005A0102C02FEF3FEFC901089580915901C2
:1004000090E020915A01821B91090895CF92DF92CA
:10041000EF92FF920F931F93CF93DF937C01262FD0
:10042000972F8A018091CD01882391F0C62FD72F75
:100430006E01C40ED51ECC15DD0571F06991D70192
:10044000ED91FC910190F081E02DC7010995F3CF6A
:10045000642F822F0E94D200C801DF91CF911F919B
:100460000F91FF90EF90DF90CF900895CF93DF939F
:100470001F92CDB7DEB769832091CD012223D1F041
:100480002091F001203240F021E030E0FC01338384
:10049000228380E090E015C08091CE01E82FF0E04B
:1004A000E153FE4F998190838F5F8093CE018093BB
:1004B000F00105C061E0CE0101960E94D20081E00A
:1004C00090E00F90DF91CF910895682F81EF91E038
:1004D0000C9436023FB7F894809135019091360123
:1004E000A0913701B091380126B5A89B05C02F3FD8
:1004F00019F00196A11DB11D3FBFBA2FA92F982F4A
:100500008827820F911DA11DB11DBC01CD0142E0C4
:10051000660F771F881F991F4A95D1F708958F920C
:100520009F92AF92BF92CF92DF92EF92FF920E9482
:100530006A024B015C0185E0C82ED12CE12CF12C24
:100540000E946A02DC01CB0188199909AA09BB093A
:10055000883E9340A105B10558F021E0C21AD108A8
:10056000E108F10888EE880E83E0981EA11CB11CFA
:10057000C114D104E104F10419F7FF90EF90DF906A
:10058000CF90BF90AF909F908F900895CF92DF92C1
:10059000EF92FF920F931F93CF93DF936C017A0139
:1005A0008B01C0E0D0E0CE15DF0589F0D8016D9158
:1005B0008D01D601ED91FC910190F081E02DC601F5
:1005C0000995892B11F47E0102C02196ECCFC70159
:1005D000DF91CF911F910F91FF90EF90DF90CF901F
:1005E0000895FC01918D828D981761F0828DDF0155
:1005F000A80FB11D5D968C91928D9F5F9F73928F16
:1006000090E008958FEF9FEF0895FC01918D828D0A
:10061000981731F0828DE80FF11D858D90E00895D7
:100620008FEF9FEF0895FC01918D228D892F90E02F
:10063000805C9F4F821B91098F73992708958DEFDE
:1006400091E00E94130321E0892B09F420E0822F1E
:100650000895FC01848DDF01A80FB11DA35ABF4F7F
:100660002C91848D90E001968F739927848FA689B1
:10067000B7892C93A089B1898C9180648C93938DD8
:10068000848D981306C00288F389E02D80818F7DC8
:1006900080830895EF92FF920F931F93CF93DF9380
:1006A000EC0181E0888F9B8D8C8D981305C0E889C3
:1006B000F989808185FD24C0F62E0B8D10E00F5F37
:1006C0001F4F0F731127E02E8C8DE8120CC00FB650
:1006D00007FCFACFE889F989808185FFF5CFCE0143
:1006E0000E942903F1CF8B8DFE01E80FF11DE35A23
:1006F000FF4FF0820B8FEA89FB898081806207C0FF
:10070000EE89FF896083E889F9898081806480832C
:1007100081E090E0DF91CF911F910F91FF90EF90DA
:100720000895CF93DF93EC01888D8823C9F0EA897F
:10073000FB89808185FD05C0A889B9898C9186FDDA
:100740000FC00FB607FCF5CF808185FFF2CFA889D7
:10075000B9898C9185FFEDCFCE010E942903E7CFA7
:10076000DF91CF91089580E090E0892B29F00E94DD
:100770001F0381110C94000008950E9406091F9226
:100780000F920FB60F9211242F933F934F935F93C5
:100790006F937F938F939F93AF93BF93EF93FF9349
:1007A0008091B900887F803609F49CC068F5883252
:1007B00009F45BC090F4803109F454C038F4882304
:1007C00009F4F6C0883009F44DC0F6C0883109F448
:1007D0004CC0803209F45DC0EFC0803409F468C0B9
:1007E00048F4803309F455C0883309F0E5C080939C
:1007F000CA01D8C0803509F44FC0883509F45DC0FE
:10080000883409F0D9C0D6C0883909F4C7C0A8F423
:10081000883709F467C038F4883609F463C0803734
:1008200009F460C0C9C0883809F4B8C0803909F437
:100830005FC0803809F0C0C05BC0803B09F486C04F
:1008400038F4803A09F466C0883A09F47FC0B4C02D
:10085000803C09F4A7C0883C09F4A4C0883B09F493
:100860008AC0AAC08091A70110C09091C90180914F
:10087000C801981770F5E091C90181E08E0F80934F
:10088000C901F0E0E855FE4F80818093BB0085EC04
:1008900086C08093CA018EC0E091C90181E08E0FAD
:1008A0008093C9018091BB00F0E0E855FE4F808342
:1008B0009091C9018091C8016EC0E091C90181E0A9
:1008C0008E0F8093C9018091BB00F0E0E855FE4F88
:1008D00080838091CB0181116DC081E08093A6015E
:1008E00084EA61C083E08093CC011092A501CFCF50
:1008F0008091A501803208F051C0E091A50181E00E
:100900008E0F8093A5018091BB00F0E0EB57FE4F66
:100910008083BDCF85EC8093BC001092CC01809188
:10092000A501803230F4E091A501F0E0EB57FE4FD5
:1009300010826091A50170E0E0918301F091840143
:1009400085E891E009951092A50136C084E0809376
:10095000CC011092820110928101E0917F01F0910F
:100960008001099580918101811105C081E080930A
:10097000810110925F01E091820181E08E0F8093EE
:100980008201F0E0E15AFE4F80818093BB0090919C
:10099000820180918101981708F479CF85E88093CE
:1009A000BC000AC085EC8093BC001092CC0104C04E
:1009B0001092CA010E94C701FF91EF91BF91AF91C0
:1009C0009F918F917F916F915F914F913F912F9167
:1009D0000F900FBE0F901F9018951F920F920FB699
:1009E0000F9211242F933F938F939F93AF93BF93B5
:1009F0008091310190913201A0913301B091340185
:100A00003091300123E0230F2D3720F40196A11DF2
:100A1000B11D05C026E8230F0296A11DB11D20932C
:100A200030018093310190933201A0933301B09350
:100A300034018091350190913601A0913701B09138
:100A400038010196A11DB11D8093350190933601A7
:100A5000A0933701B0933801BF91AF919F918F91CF
:100A60003F912F910F900FBE0F901F9018951F92DE
:100A70000F920FB60F9211242F933F934F935F93D2
:100A80006F937F938F939F93AF93BF93EF93FF9356
:100A90008DEF91E00E942903FF91EF91BF91AF91FB
:100AA0009F918F917F916F915F914F913F912F9186
:100AB0000F900FBE0F901F9018951F920F920FB6B8
:100AC0000F9211242F938F939F93EF93FF93E091B5
:100AD0000D02F0910E028081E0911302F091140258
:100AE00082FD12C09081809116028F5F8F732091DA
:100AF0001702821751F0E0911602F0E0E350FE4F2A
:100B0000958F8093160201C08081FF91EF919F9194
:100B10008F912F910F900FBE0F901F901895E1EFBE
:100B2000F1E01382128288EE93E0A0E0B0E08483CB
:100B30009583A683B78324E031E031832083EDEFF2
:100B4000F1E01382128284839583A683B78384E1C4
:100B500091E09183808385EC90E09587848784EC95
:100B600090E09787868780EC90E0918B808B81EC7A
:100B700090E0938B828B82EC90E0958B848B86EC5B
:100B800090E0978B868B118E128E138E148E0895A3
:100B9000CF93DF93CDB7DEB729970FB6F894DEBFBA
:100BA0000FBECDBF789484B5826084BD84B581606A
:100BB00084BD85B5826085BD85B5816085BD809128
:100BC0006E00816080936E001092810080918100A0
:100BD0008260809381008091810081608093810098
:100BE000809180008160809380008091B10084605A
:100BF0008093B1008091B00081608093B0008091BB
:100C00007A00846080937A0080917A008260809379
:100C10007A0080917A00816080937A0080917A00D6
:100C2000806880937A001092C100E0910D02F091EB
:100C30000E0282E08083E0910902F0910A021082A4
:100C4000E0910B02F0910C0280E18083109215027A
:100C5000E0911102F091120286E08083E0910F0290
:100C6000F0911002808180618083E0910F02F09109
:100C70001002808188608083E0910F02F091100261
:100C8000808180688083E0910F02F0911002808162
:100C90008F7D808310925A01109259011092CE01DB
:100CA0001092F0010E94FA0083E50E94C8008DE2D4
:100CB00090E00E94650288E090E00E9465020E9438
:100CC0004F010E948F0283E50E94C80081E390E0FB
:100CD0000E94650288E090E00E9465020E944F0138
:100CE0000E948F0283E50E94C8008CE290E00E947F
:100CF000650289E090E00E9465020E944F010E9417
:100D00008F028EE10E94C80082E090E00E9465029E
:100D100080E090E00E9465020E944F010E948F02D5
:100D20008EE10E94C80080E090E00E94650288E1A8
:100D300090E00E9465020E944F010E948F0288E6A7
:100D40000E94C8008EE390E00E94650280E890E077
:100D50000E9465020E944F010E948F0288E60E9455
:100D6000C80086E190E00E9465028BE190E00E945D
:100D700065020E944F010E948F0288E60E94C8000F
:100D800085E190E00E9465028AE090E00E946502A1
:100D90000E944F010E948F0288E60E94C8008EE3E5
:100DA00090E00E94650280E090E00E9465020E944F
:100DB0004F010E948F028E010F5F1F4F2FB7F894D3
:100DC0008091310190913201A0913301B0913401B1
:100DD0002FBF0A97A105B10508F40FC188E60E944C
:100DE000C8008DE190E00E9465020E944F0188E6F4
:100DF0000E94C80081E00E9416018091CC018823E6
:100E000029F080E00E9416018823B9F381E08093E5
:100E1000CC018093CB012FEF2093CA011092C9011E
:100E200035E03093C8018093A7018091A701806DC0
:100E30008093A7018091A601813071F41092A601E0
:100E40008091A7018093BB008091BC0083FDF8CF07
:100E500085EC8093BC0003C095EE9093BC0081E0CC
:100E60000E9416018091CC01813029F480E00E941B
:100E700016018823B9F38091C901863010F066E02D
:100E800002C06091C901A8EAB1E0E9E3F1E08E2F68
:100E900029E331E0821B861718F48D918193F7CFF7
:100EA00010925A0160935901A8011A01201A310ABF
:100EB00080915A01681771F081EF91E04887598756
:100EC0006F830E94EA0148855985FA018193AF0139
:100ED0006F81EBCF0E944F01F6E02F16310409F02D
:100EE00053C06B8170E0762F66278C81682B7195DB
:100EF00061957109072E000C880B990B0E947A08E6
:100F00004B015C01698170E0762F66278A81682B2E
:100F1000719561957109072E000C880B990B0E9441
:100F20007A086B017C016D8170E0762F66278E81D7
:100F3000682B719561957109072E000C880B990B30
:100F40000E947A082B013C0120E030E046E651E4A3
:100F5000C501B4010E9406084B015C0120E030E0AD
:100F600046E651E4C701B6010E9406086B017C0108
:100F700020E030E046E651E4C301B2010E940608D9
:100F8000762E672E582E492E8092240190922501AC
:100F9000A0922601B0922701872D962DA52DB42D64
:100FA0008093280190932901A0932A01B0932B01EB
:100FB000C0922C01D0922D01E0922E01F0922F01CF
:100FC0008093200190932101A0932201B0932301EB
:100FD0002091210190912201809123013BE73983E7
:100FE0007A822B839C838D838DE78E8346E050E04D
:100FF000B8018DEF91E00E94C6020E94B303DECEDD
:10100000EE0FFF1F0590F491E02D09940E941A083D
:101010000C94CC080E94C50858F00E94BE0840F00D
:1010200029F45F3F29F00C94B50851110C94000984
:101030000C94BB080E94DD0868F39923B1F3552393
:1010400091F3951B550BBB27AA27621773078407DB
:1010500038F09F5F5F4F220F331F441FAA1FA9F371
:1010600035D00E2E3AF0E0E832D091505040E6955F
:10107000001CCAF72BD0FE2F29D0660F771F881FC0
:10108000BB1F261737074807AB07B0E809F0BB0BB3
:10109000802DBF01FF2793585F4F3AF09E3F5105C7
:1010A00078F00C94B5080C9400095F3FE4F3983E87
:1010B000D4F3869577956795B795F7959F5FC9F7B0
:1010C000880F911D9695879597F90895E1E0660F31
:1010D000771F881FBB1F621773078407BA0720F0AA
:1010E000621B730B840BBA0BEE1F88F7E095089513
:1010F000E89409C097FB3EF49095809570956195B2
:101100007F4F8F4F9F4F9923A9F0F92F96E9BB2767
:101110009395F695879577956795B795F111F8CFE3
:10112000FAF4BB0F11F460FF1BC06F5F7F4F8F4F4E
:101130009F4F16C0882311F096E911C0772321F044
:101140009EE8872F762F05C0662371F096E8862FDC
:1011500070E060E02AF09A95660F771F881FDAF733
:10116000880F9695879597F9089597F99F6780E876
:1011700070E060E008959FEF80EC089500240A94E9
:101180001616170618060906089500240A94121662
:101190001306140605060895092E0394000C11F495
:1011A000882352F0BB0F40F4BF2B11F460FF04C042
:1011B0006F5F7F4F8F4F9F4F089557FD9058440F9B
:1011C000551F59F05F3F71F04795880F97FB991FA6
:1011D00061F09F3F79F08795089512161306140663
:1011E000551FF2CF4695F1DF08C0161617061806F0
:1011F000991FF1CF86957105610508940895E894CB
:10120000BB2766277727CB0197F9089581E090E007
:0A121000F8940C940B09F894FFCF3A
:10121A000000000036020602FE01EA01DB01DA01E3
:10122A00000000004A03C6021303F10205039103FA
:00000001FF
